:020000040000FA
:1000000001288316013085008601831286010614BB
:1000100001308D0005180D280A28861406168C015B
:1000200094208C0A05181028861006123C300C0209
:1000300003181C2803101D2803148D0D8C01942017
:100040008C0A05180D283C300C02031C1F280615CD
:100050009E2006110D083F208E00802001308D006B
:1000600094208C0A05180D28B4300C02031C30288B
:1000700086159E20861120308E0080200A28820757
:100080003F343F3465347434693461346E346D34D4
:10009000733475347234773464346B3467346F344A
:1000A0006834763466343F346C343F3470346A34A8
:1000B00062347834633479347A3471343F343F3481
:1000C000353434343F3433343F343F343F343234C6
:1000D0003F343F343F343F343F343F343F34313496
:1000E00036343F343F343F343F343F343F343F3481
:1000F00037343F343F343F3438343F34393430348C
:1001000006108F2008308F008E0C03180614031C75
:1001100006108F208F0B842806148F2008002130B2
:100120009000900B912808000A309100F93090005F
:100130000000900B9828910B96280800143092002C
:080140009420920BA028080096
:02400E00F23F7F
:00000001FF
