:020000040000FA
:100000000128831604308500860183121720051904
:100010000728342008308D002F2003100519031401
:100020008C0C8D0B0C282F200C0828200728392039
:10003000383021200C3021200130212006302120B1
:10004000080086000510851400008510392008007E
:10005000860005148514000085102F20080021302B
:100060008E008E0B3128080010308E008E0B362843
:1000700008000F308F00F9308E0000008E0B3D28F5
:060080008F0B3B28080075
:02400E00F23F7F
:00000001FF
